{
  "contractName": "ContentTracking",
  "abi": [
    {
      "constant": true,
      "inputs": [
        {
          "internalType": "uint256",
          "name": "",
          "type": "uint256"
        }
      ],
      "name": "documentArray",
      "outputs": [
        {
          "internalType": "bytes32",
          "name": "",
          "type": "bytes32"
        }
      ],
      "payable": false,
      "stateMutability": "view",
      "type": "function"
    },
    {
      "constant": false,
      "inputs": [
        {
          "internalType": "string",
          "name": "document",
          "type": "string"
        }
      ],
      "name": "storeDocument",
      "outputs": [],
      "payable": false,
      "stateMutability": "nonpayable",
      "type": "function"
    },
    {
      "constant": true,
      "inputs": [
        {
          "internalType": "string",
          "name": "document",
          "type": "string"
        }
      ],
      "name": "newDocument",
      "outputs": [
        {
          "internalType": "bool",
          "name": "",
          "type": "bool"
        }
      ],
      "payable": false,
      "stateMutability": "view",
      "type": "function"
    }
  ],
  "bytecode": "0x608060405234801561001057600080fd5b50610421806100206000396000f3fe608060405234801561001057600080fd5b50600436106100415760003560e01c8063b644f35014610046578063cbdd51ea146100bf578063efca72b114610192575b600080fd5b6100bd6004803603602081101561005c57600080fd5b810190808035906020019064010000000081111561007957600080fd5b82018360208201111561008b57600080fd5b803590602001918460018302840111640100000000831117156100ad57600080fd5b90919293919293905050506101d4565b005b610178600480360360208110156100d557600080fd5b81019080803590602001906401000000008111156100f257600080fd5b82018360208201111561010457600080fd5b8035906020019184600183028401116401000000008311171561012657600080fd5b91908080601f016020809104026020016040519081016040528093929190818152602001838380828437600081840152601f19601f820116905080830192505050505050509192919290505050610256565b604051808215151515815260200191505060405180910390f35b6101be600480360360208110156101a857600080fd5b81019080803590602001909291905050506102ba565b6040518082815260200191505060405180910390f35b600061022383838080601f016020809104026020016040519081016040528093929190818152602001838380828437600081840152601f19601f820116905080830192505050505050506102db565b90506000819080600181540180825580915050906001820390600052602060002001600090919290919091505550505050565b600080610262836102db565b905060008090505b6000805490508110156102ae57816000828154811061028557fe5b906000526020600020015414156102a1576001925050506102b5565b808060010191505061026a565b5060009150505b919050565b600081815481106102c757fe5b906000526020600020016000915090505481565b60006002826040516020018082805190602001908083835b6020831061031657805182526020820191506020810190506020830392506102f3565b6001836020036101000a0380198251168184511680821785525050505050509050019150506040516020818303038152906040526040518082805190602001908083835b6020831061037d578051825260208201915060208101905060208303925061035a565b6001836020036101000a038019825116818451168082178552505050505050905001915050602060405180830381855afa1580156103bf573d6000803e3d6000fd5b5050506040513d60208110156103d457600080fd5b8101908080519060200190929190505050905091905056fea265627a7a72315820729d657233d5db499e6c31d78796599790b766b9b9eed5d00e6f228e330db33b64736f6c634300050c0032",
  "source": "pragma solidity ^0.5.0;\n\n//Contracts are equivalent to classes\ncontract ContentTracking {\n    //Private variable hash array of type bytes32\n    bytes32[] public documentArray;\n    //Pass in a document and hash\n    function hashDocument(string memory document)\n    private\n    pure\n    returns (bytes32)\n    {\n        return sha256(abi.encodePacked(document));\n    }\n    //Store hashed document\n    function storeDocument(string calldata document)\n    external\n    {\n        bytes32 hashedDocument = hashDocument(document);\n        documentArray.push(hashedDocument);\n    }\n    //Check a new document to see if contained in hashedDocument array\n    function newDocument(string memory document)\n    public\n    view\n    returns(bool)\n    {\n        bytes32 newHashedDocument = hashDocument(document);\n        for(uint256 i = 0; i < documentArray.length; i++){\n            if(documentArray[i] == newHashedDocument){\n                return true;\n            }\n        }\n        return false;\n    }\n}\n",
  "sourcePath": "/Users/marcuswardlow/Development/provenance-react-app/contracts/ContentTracking.sol",
  "compiler": {
    "name": "solc",
    "version": "0.5.12+commit.7709ece9.Emscripten.clang"
  },
  "schemaVersion": "3.0.19",
  "updatedAt": "2020-01-07T22:15:03.670Z",
  "networkType": "ethereum",
  "devdoc": {
    "methods": {}
  },
  "userdoc": {
    "methods": {}
  }
}